:100000000C947E020C949D020C949D020C949D0213
:100010000C949D020C949D020C949D020C949D02E4
:100020000C949D020C949D020C949D020C949D02D4
:100030000C949D020C949D020C949D020C949D02C4
:100040000C949D020C949D020C949D020C949D02B4
:100050000C949D020C949D020C949D020C949D02A4
:100060000C949D020C949D020C949D020C949D0294
:100070000C949D020C949D020C949D020C949D0284
:100080000C949D020C949D020C949D020C949D0274
:100090000C949D020C949D020C949D020C942907D3
:1000A0000C945B070C948D070C94BF070C949D0275
:1000B0000C949D020C949D020C949D020C949D0244
:1000C0000C949D020C949D020C949D020C949D0234
:1000D0000C949D020C949D020C949D020C949D0224
:1000E0000C949D020C949D020C949D020C949D0214
:1000F0000C949D020C949D020C949D020C949D0204
:100100000C949D020C949D020C949D020C949D02F3
:100110000C949D020C949D020C949D020C9461061B
:100120000C9493060C94C5060C94F7060C949D024F
:100130000C949D020C949D020C949D020C949D02C3
:100140000C949D020C949D020C949D020C949D02B3
:100150000C949D020C949D020C949D020C949D02A3
:100160000C949D020C949D020C949D020C949D0293
:100170000C949D020C949D020C949D020C949D0283
:100180000C949D020C949D020C949D020C949D0273
:100190000C949D020C949D020C949D020C949D0263
:1001A0000C949D020C949D020C949D020C949D0253
:1001B0000C949D020C949D020C949D020C949D0243
:1001C0000C949D020C949D020C949D020C949D0233
:1001D0000C949D020C949D020C949D020C949D0223
:1001E0000C949D020C949D020C949D020C949D0213
:1001F0000C949D020C949D020C949D02FF7E3C1871
:10020000000000000000002020202020002050508E
:1002100050000000005050F850F850502078A07066
:1002200028F020C0C810204098186090A040A890E6
:100230006860204000000000102040404020104036
:10024000201010102040005020F8205000002020E6
:10025000F820200000000000602040000000F800AE
:1002600000000000000000606000081020408000D6
:10027000708898A8C888702060202020207070881E
:1002800008102040F8F810201008887010305090A6
:10029000F81010F880F008088870304080F08888E6
:1002A00070F808102040404070888870888870700E
:1002B00088887808106000606000606000006060FE
:1002C00000602040081020402010080000F800F8CE
:1002D00000008040201020408070880810200020FE
:1002E00070880868A8A87070888888F88888F0885E
:1002F00088F08888F070888080808870E090888896
:100300008890E0F88080F08080F8F88080E080803D
:100310008070888080988870888888F8888888703D
:10032000202020202070381010101090608890A09D
:10033000C0A09088808080808080F888D8A8888835
:1003400088888888C8A898888870888888888870ED
:10035000F08888F080808070888888A89068F0880D
:1003600088F0A09088788080700808F0F82020201D
:100370002020208888888888887088888888885085
:1003800020888888A8A8D88888885020508888889D
:10039000885020202020F80810204080F8382020A5
:1003A0002020203800804020100800E0202020205D
:1003B00020E020508800000000000000000000F84D
:1003C00040201000000000000070087888788080CD
:1003D000B0C88888F000007080808870080868982D
:1003E00088887800007088F88070304840E040408D
:1003F00040000078887808308080B0C888888820DD
:1004000000602020207010003010109060404048A4
:1004100050605048602020202020700000D0A8A804
:1004200088880000B0C88888880000708888887034
:100430000000F088F08080000068987808080000CC
:10044000B0C8808080000070807008F04040E040BC
:100450004048300000888888986800008888885064
:100460002000008888A8A8500000885020508800EC
:100470000088887808700000F8102040F8102020CC
:10048000402020102020202020202040202010204C
:100490002040002010F8102000002040F8402000EC
:1004A00053686F7720766F6C7461676500446F20C6
:1004B0004E6F7468696E6700446F204E6F74686990
:1004C0006E6700446F204E6F7468696E6700446FFA
:1004D000204E6F7468696E670053686F7720436FB2
:1004E0006D70756C6162206C6F676F004D656E7525
:1004F0002054657374205469746C650011241FBE08
:10050000CFEFCDBFDFE2DEBF14E2A0E0B0E2E6E372
:10051000FFE200E00BBF02C007900D92A03CB107C4
:10052000D9F718E2A0ECB4E201C01D92A13EB107D8
:10053000E1F70E949C140C9477170C940000CF9262
:10054000DF92EF92FF920F931F93CF93DF93EC0113
:100550006A017B01DB01CA010197A109B109BC0154
:10056000CD01600F711F821F931FA70196010E948A
:100570008615213831054105510528F5213431050D
:100580004105510578F4213231054105510560F4EA
:10059000213160F4293060F4253060F4233060F4B8
:1005A00090E80BC093E009C092E007C092E805C054
:1005B00091E003C091E801C090E028812C77922B54
:1005C000988381E001C08FEFDF91CF911F910F9150
:1005D000FF90EF90DF90CF9008958091CF0187FD3D
:1005E000FCCF0895682F70E082E00C9451061F93B1
:1005F000CF93DF93C0ECD1E01A858A8761E08BEC62
:1006000091E00E945B061A87DF91CF911F910895B8
:10061000CF93DF93EC0188E00E94F202888389E0A7
:100620000E94F20289838AE00E94F2028A838BE0B0
:100630000E94F2028B838CE00E94F2028C838DE098
:100640000E94F2028D8380E10E94F2028E8382E199
:100650000E94F2028F8383E10E94F202888784E184
:100660000E94F202898785E10E94F2028A87DF9167
:10067000CF910895CF93DF93EC010E94ED02ECEC53
:10068000F1E0808188608083D05F88819081977F4E
:100690009083DF91CF910895CF92DF92EF92FF92F6
:1006A0000F931F93CF93DF9300D0CDB7DEB78C01AC
:1006B0007B0149835A830E94ED028CECC82EDD2415
:1006C000D394F601908198609083B801705F49815E
:1006D0005A81C7010E943217F6018081877F80838B
:1006E0000F900F90DF91CF911F910F91FF90EF909E
:1006F000DF90CF9008950E94ED028091CF0181FF9D
:1007000008C086E38093CA0161E08BEC91E00C9411
:100710005B060895CF93DF9300D0CDB7DEB76A8331
:1007200089830E94ED02ACECB1E09C9198609C93AF
:100730008981E82FF0E0F05F6A8160838C91877F88
:100740008C930F900F90DF91CF910895EF92FF92CD
:100750000F931F93CF93DF9300D0CDB7DEB7182F41
:1007600080ECE82EFF24F394F701028569839A83D5
:100770000E947B030E94ED026981812F0E948A03FF
:10078000F70112829A819183108385E3828761E069
:100790008BEC91E00E945B06F70102870F900F90AF
:1007A000DF91CF911F910F91FF90EF9008950F93DC
:1007B0001F93CF938C010E94ED02C0E0F80161917C
:1007C0008F018C2F0E948A03CF5FC032B9F7CF917F
:1007D0001F910F910895CF93DF931F92CDB7DEB78E
:1007E00089830E94ED02898120E2829FC001112449
:1007F000E0ECF1E012829183808385E30F90DF913A
:10080000CF910C94F702CF92DF92EF92FF920F9369
:100810001F93CF93DF93EC017B018A010115110532
:1008200041F1CE018F719927892BA9F4003211056E
:1008300090F0C7010E94D703CE0125E096958795D9
:100840002A95E1F70E94EB03A09680E2E80EF11CE6
:1008500000521109E3CF6E01EFEFCE1ADE0AF70165
:1008600061917F01CE010E94A60301501109E601AA
:10087000D5CFDF91CF911F910F91FF90EF90DF9037
:10088000CF900895CF93DF931F92CDB7DEB78983C2
:100890000E94ED02898120E2829FC0011124E0ECD8
:1008A000F1E012829183808384E30F90DF91CF91F6
:1008B0000C94F702CF93DF93D82F0E947B030E9402
:1008C000ED02C0E06D2F8C2F0E948A03CF5FC032F3
:1008D000C9F7DF91CF910895CF93DF931F92CDB7E2
:1008E000DEB789830E94ED02898120E2829FC001E8
:1008F0001124E0ECF1E012829183808382E30F9077
:10090000DF91CF910C94F702CF93C82F8FEF0E9405
:100910005A048C2FCF910C946C040E94ED0280E35A
:100920000C94F7028FEF0E945A040C948D04CF921E
:10093000DF92EF92FF921F93CF93DF93C0ECD1E051
:100940001A85EAE3EA876883C72ED82EE92EFF24AA
:10095000C982AA27BB278A832C83BB27A52F942F64
:10096000832F8D83CA01AA27BB278E8361E08BEC7E
:1009700091E00E945B061A87DF91CF911F91FF9053
:10098000EF90DF90CF900895EF92FF920F931F9317
:10099000CF93DF93EA0189017B010E94ED02CE0132
:1009A000800F911FDE01B7016C1B7D0B8D01060FBF
:1009B000171FA817B90739F020E030E02BBFF80166
:1009C00007910D93F3CFDF91CF911F910F91FF907E
:1009D000EF900895EF92FF920F931F93CF93DF93C1
:1009E00077277A01E20EF31EEA018B01041B150B37
:1009F000BE01600F711FCE15DF0529F081E00E9456
:100A000051068993F5CFDF91CF911F910F91FF9000
:100A1000EF9008952F923F924F925F926F927F9244
:100A20008F929F92AF92BF92CF92DF92EF92FF92FE
:100A30000F931F93CF93DF9300D0CDB7DEB75A014A
:100A400069017B0110E022242A94322CC114D104C4
:100A500009F450C0412C512C32014201002391F085
:100A6000B20181E00E9451068983B2016F5F7F4F1E
:100A700081E00E9451068A8389819A81019621F042
:100A800011E002C029823A82C114D10401F1E814B4
:100A9000F90469F481E0C81AD108EFEFEE1AFE0AF2
:100AA000F50181915F018983C114D10481F0FFEFC9
:100AB0008F1A9F0AE814F90451F421E0C21AD108F0
:100AC0008FEFE81AF80AF50181915F018A83498165
:100AD0005A81C301B2010E948817F2E04F0E511CE7
:100AE000611C711C411421E052066104710409F07B
:100AF000B4CFACCF112341F00E94ED0248E160E099
:100B000070E0CB010E9479170E94ED024AE160E09B
:100B100070E0CB010F900F90DF91CF911F910F915B
:100B2000FF90EF90DF90CF90BF90AF909F908F900D
:100B30007F906F905F904F903F902F900C9479171B
:100B40002F923F924F925F926F927F928F929F92DD
:100B5000AF92BF92CF92DF92EF92FF920F931F93CB
:100B6000CF93DF93CDB7DEB72697CDBFDEBF3A0177
:100B700069014B017B01EE2422242A94322CC114FA
:100B8000D10409F45EC00E94ED022701539457017D
:100B900010E0B50180E090E0002359F08BBFFB012D
:100BA0002791369129833A832F3F3F4F21F011E05F
:100BB00002C029823A82C114D10401F18A149B0433
:100BC00069F4E1E0CE1AD108FFEF8F1A9F0AF30112
:100BD00021913F012983C114D10481F095012F5F38
:100BE0003F4F8216930651F4F1E0CF1AD1082FEF50
:100BF000821A920AF30121913F012A8349815A8185
:100C00000E948817F2E0AF0EB11CA414B50409F0DD
:100C1000C0CFB70180E090E0EB827C838D839E8320
:100C2000112321F00E94ED0245E203C00E94ED0273
:100C300044E26B817C818D819E810E9479177501D0
:100C40009ECF2696CDBFDEBFDF91CF911F910F9132
:100C5000FF90EF90DF90CF90BF90AF909F908F90DC
:100C60007F906F905F904F903F902F9008950F93DB
:100C70001F93CF93DF931F92CDB7DEB789830E9476
:100C8000ED0200EC11E08981F801808387E00E9489
:100C9000F702F80184810F90DF91CF911F910F919E
:100CA00008954091CA01E62FF72F8093CA018491DD
:100CB0004093CA0108951BBEFC0128ED24BF608348
:100CC00008951F920F920FB60F9211240BB60F9238
:100CD0002F933F934F935F936F937F938F939F9344
:100CE000AF93BF93EF93FF9340912402509125025D
:100CF000E091C728F091C82861E080E092E0099572
:100D0000FF91EF91BF91AF919F918F917F916F91E3
:100D10005F914F913F912F910F900BBE0F900FBE9F
:100D20000F901F9018951F920F920FB60F921124DB
:100D30000BB60F922F933F934F935F936F937F93D5
:100D40008F939F93AF93BF93EF93FF9340912C02A8
:100D500050912D02E091C728F091C82862E080E010
:100D600092E00995FF91EF91BF91AF919F918F9183
:100D70007F916F915F914F913F912F910F900BBE9B
:100D80000F900FBE0F901F9018951F920F920FB6E5
:100D90000F9211240BB60F922F933F934F935F93B3
:100DA0006F937F938F939F93AF93BF93EF93FF9333
:100DB0004091340250913502E091C728F091C82843
:100DC00064E080E092E00995FF91EF91BF91AF91CF
:100DD0009F918F917F916F915F914F913F912F9153
:100DE0000F900BBE0F900FBE0F901F9018951F9283
:100DF0000F920FB60F9211240BB60F922F933F93C1
:100E00004F935F936F937F938F939F93AF93BF9312
:100E1000EF93FF9340913C0250913D02E091C7282F
:100E2000F091C82868E080E092E00995FF91EF9189
:100E3000BF91AF919F918F917F916F915F914F91F2
:100E40003F912F910F900BBE0F900FBE0F901F90F0
:100E500018951F920F920FB60F9211240BB60F9296
:100E60002F933F934F935F936F937F938F939F93B2
:100E7000AF93BF93EF93FF9340916402509165024B
:100E8000E091C528F091C62861E080E492E00995E0
:100E9000FF91EF91BF91AF919F918F917F916F9152
:100EA0005F914F913F912F910F900BBE0F900FBE0E
:100EB0000F901F9018951F920F920FB60F9211244A
:100EC0000BB60F922F933F934F935F936F937F9344
:100ED0008F939F93AF93BF93EF93FF9340916C02D7
:100EE00050916D02E091C528F091C62862E080E43F
:100EF00092E00995FF91EF91BF91AF919F918F91F2
:100F00007F916F915F914F913F912F910F900BBE09
:100F10000F900FBE0F901F9018951F920F920FB653
:100F20000F9211240BB60F922F933F934F935F9321
:100F30006F937F938F939F93AF93BF93EF93FF93A1
:100F40004091740250917502E091C528F091C62835
:100F500064E080E492E00995FF91EF91BF91AF9139
:100F60009F918F917F916F915F914F913F912F91C1
:100F70000F900BBE0F900FBE0F901F9018951F92F1
:100F80000F920FB60F9211240BB60F922F933F932F
:100F90004F935F936F937F938F939F93AF93BF9381
:100FA000EF93FF9340917C0250917D02E091C52820
:100FB000F091C62868E080E492E00995FF91EF91F6
:100FC000BF91AF919F918F917F916F915F914F9161
:100FD0003F912F910F900BBE0F900FBE0F901F905F
:100FE0001895DF92EF92FF920F931F93CF93DF93A9
:100FF0007C018B01E11482E0F80651F461E270E0BB
:1010000082E00E945106C82FD0E060E270E00EC07E
:10101000E0E4EE16E2E0FE06D1F565E270E082E083
:101020000E945106C82FD0E064E270E082E00E9486
:101030005106DC2FCC27C82BDFB6F894C7010E94DD
:101040001E09F701808192E09083C487D587F8015B
:1010500025813681F701208F318FF8019281F701C8
:101060009283F8019481F7019483F8019381F70149
:101070009383F8019181F70191838170F801908148
:10108000892BF7018083C7010E943D09DFBEDF91F4
:10109000CF911F910F91FF90EF90DF900895FF92F5
:1010A0000F931F93CF93DF93EC018B01FFB6F8945E
:1010B0000E941E098881807CF8018083888D998D2B
:1010C000858396838A8182838C8184838B818383C9
:1010D00089818183CE010E943D09FFBEDF91CF91BE
:1010E0001F910F91FF900895AF92BF92DF92EF9200
:1010F000FF920F931F93CF93DF931F92CDB7DEB76D
:101100007C018A01862F837029F4862F8695869527
:1011100092E002C0862F90E080FF9F5F570180E23F
:10112000A80EB11CE8E09E9FA00CB11C1124DFB6F4
:10113000F894C70169830E941E09F8018081F501B6
:101140008083F8018281F5018283F8018181F501B4
:101150008183698160FF04C0F8018381F501868382
:10116000C7010E943D09DFBE0F90DF91CF911F9113
:101170000F91FF90EF90DF90BF90AF900895AF92E6
:10118000BF92DF92EF92FF920F931F93CF93DF9363
:101190001F92CDB7DEB77C018A01862F837029F4B8
:1011A000862F8695869592E002C0862F90E080FF7C
:1011B0009F5F570180E2A80EB11CE8E09E9FA00C43
:1011C000B11C1124DFB6F894C70169830E941E097F
:1011D000F5018081F8018083F5018281F801828325
:1011E000F5018181F8018183698160FF04C0F50107
:1011F0008681F8018383C7010E943D09DFBE0F90FD
:10120000DF91CF911F910F91FF90EF90DF90BF90F2
:10121000AF9008952FB7F894811532E0930729F421
:101220006093C7287093C82807C08034924021F487
:101230006093C5287093C6282FBF0895811522E0BA
:10124000920759F48091C12491E0980F9093C124A2
:10125000811112C062E081E00DC08034924061F4DF
:101260008091C02491E0980F9093C024811104C014
:1012700062E082E00C94D6110895811522E0920775
:1012800051F48091C12481508093C124811111C0F7
:1012900062E081E00CC08034924059F48091C02417
:1012A00081508093C024811104C062E082E00C94DC
:1012B000E21108951F93CF93DF93EC011FB7F894C9
:1012C0000E941E098881816088831FBF9FB7F894A0
:1012D000E9ECF8E281818F5F81839FBFDF91CF913D
:1012E0001F910895CF93CFB7F894FC0120812E7FF2
:1012F00020830E943D09CFBF9FB7F894E9ECF8E244
:101300008181815081839FBFCF910895811522E013
:10131000920721F481E09091C12406C0803492406C
:1013200029F481E09091C024911101C080E00895DA
:10133000AB01982F969596959695877021E030E0B1
:10134000B90101C0660F8A95EAF720E2929FC001B9
:1013500011249A5F0C94880A60E078E18CE20E9484
:10136000980960E078E18DE20E94980960E078E1F8
:101370008EE20E94980963E070E089E00E9498097B
:1013800063E070E088E00E94980963E070E08AE022
:101390000E94980963E070E085E10E94980963E08B
:1013A00070E087E10E94980963E070E084E10E94A8
:1013B000980961E070E085E20E94980963E070E0BE
:1013C00083E20E94980963E070E085E20E94980938
:1013D00063E070E086E20E94980963E070E087E2D3
:1013E0000C949809CF93DF93EC01C03C88E0D807B8
:1013F00019F468E083E00DC0C03C89E0D80719F417
:1014000068E084E006C0C03C8AE0D80721F468E0C8
:1014100085E00E94D611888180618883DF91CF9119
:101420000895EF92FF920F931F93CF937C01C42FE7
:10143000B901A80100E814E82EE130E00E949F0203
:1014400087FD0BC0F7019081F4E0CF9FA00111242C
:101450004C70937F492BF7014083CF911F910F91DF
:10146000FF90EF900895FB01460F571FE417F50713
:1014700051F02191DC0113962C93DC0112962C91F2
:1014800027FFFBCFF3CF80E00895DC01FB01460F7F
:10149000571F8FEFE417F50769F013968C93139796
:1014A00012969C91129797FFFBCF13969C911397DE
:1014B0009193F0CF80E00895FB018081E82FE695BD
:1014C000E695E69540E2E49FF0011124FA5F87700B
:1014D00021E030E0A90102C0440F551F8A95E2F7D0
:1014E00046830895FB018081E82FE695E695E69511
:1014F00040E2E49FF0011124FA5F877021E030E0C0
:10150000A90102C0440F551F8A95E2F7458308954B
:10151000FC0180E090E0262F30E0D901082E02C0C7
:10152000B595A7950A94E2F7A0FF05C0DF01A80FC3
:10153000B91F50965C9301968830910571F740FF72
:1015400007C041FF02C0658301C0668361830895BF
:10155000628308958093C2249093C3240895E42F56
:10156000F0E0AF0130E8639F400D511D1124E09180
:10157000C224F091C324E40FF51F2E0FDC013D912E
:10158000CD0131932E13FACF0895E42FF0E0AF018F
:1015900030E8639F400D511D1124E091C224F09169
:1015A000C324E40FF51FDC01820F91919D938A13F0
:1015B000FCCF08952091C2243091C32490E8899FE4
:1015C000200D311D1124F901E60FF11D408308950E
:1015D0002091C2243091C32490E8899F200D311DB1
:1015E0001124F901E60FF11D80810895FF920F93F8
:1015F0001F93CF93DF9387FD2EC0603460F5042FD7
:10160000182FF62EF694F694F6942F2D38EF320319
:10161000C0011124860F911DC1E0D0E001C0CC0FA4
:101620008A95EAF7612F8F2D0E94E80A482F013032
:1016300029F030F0023031F44C2704C04C2B02C0AA
:10164000C0954C23612F8F2DDF91CF911F910F916A
:10165000FF900C94DA0ADF91CF911F910F91FF90C8
:1016600008951F93CF9387FD1AC06034C0F4C62F2E
:10167000682F1C2F169516951695812F0E94E80A43
:1016800028EF2103A00111244C0F511D21E030E06F
:10169000042E01C0220F0A94EAF7822301C080E0E1
:1016A000CF911F9108950F931F93CF93DF9300D095
:1016B000CDB7DEB7182F062F2A8349830E949E11CB
:1016C0002A814981213029F030F0223031F48427F9
:1016D00004C0842B02C04095842320E0482F602F53
:1016E000812F0F900F90DF91CF911F910F910C944C
:1016F0002511FF920F931F93CF93DF93082F842F11
:1017000090E0800F911D8138910514F040E8401B56
:10171000442309F451C0162F16951695169538EFE7
:101720003103C0011124860F911D61E070E0082E85
:1017300001C0660F0A94EAF7F62E213031F040F02E
:101740002230D1F5CFEFC40F28C0CFEFC40F05C0B2
:10175000CFEFC40FD62FD09510C0DC2FD00F6D2F38
:10176000812F0E949E11482F4F2920E06D2F812F3D
:101770000E942511C15088F71FC0FC2EF00E6F2D5E
:10178000812F0E949E11482F4D2320E06F2D812F25
:101790000E942511C15088F70FC0DC2FD00F6D2F8C
:1017A000812F0E949E11482F4F2520E06D2F812F01
:1017B0000E942511C15088F7DF91CF911F910F91A1
:1017C000FF900895EF92FF920F931F93CF93DF93B3
:1017D000942F442309F44DC04FEF460F940F691323
:1017E00009C0422FDF91CF911F910F91FF90EF9091
:1017F0000C9462119F3308F09FE3162F16951695EF
:101800001695092F0695069506956770EFEFF0E09F
:10181000AF0101C0440F6A95EAF7977067E070E086
:10182000691B71097F0102C0F594E7946A95E2F79C
:10183000101304C04E21682F812F13C0D22FC82F40
:10184000682F812F0E94A0111F5F2D2F101730F4D9
:101850004FEF6C2F812F0E94A011F6CF4E2D6C2FD1
:10186000802FDF91CF911F910F91FF90EF900C94FB
:10187000A011DF91CF911F910F91FF90EF900895EC
:101880008F929F92BF92CF92DF92EF92FF920F932F
:101890001F93CF93DF93D82F162FB02E481728F41D
:1018A000122F262F8D2FD42F482FC42FCD1B211B55
:1018B000F22EC7FF03C0C1950FEF01C001E027FF63
:1018C00005C0F22EF194CC24CA9402C0CC24C39457
:1018D000FC16CCF4EF2CEC1AD12C8C2E992487FC1E
:1018E00090948D2D90E08816990634F14B2D612F40
:1018F0008D2F0E946211E7FC02C0EC1A1C0DEF0C48
:10190000D00FD394EECFEC2EEF18D12C8F2C99243E
:1019100087FC90948D2D90E0881699066CF04B2DE5
:10192000612F8D2F0E946211E7FC02C0EF18D00FCB
:10193000EC0E1C0DD394EECFDF91CF911F910F9140
:10194000FF90EF90DF90CF90BF909F908F90089581
:10195000FF920F931F93CF93DF93D82F162FC42F8F
:10196000F22E202F0E94790B6FEF6F0D610F202F49
:101970004C2F8D2F0E94790B202F4F2D612F8D2FF3
:101980000E94E20B8FEF8C0F202F4F2D612F8D0FB8
:10199000DF91CF911F910F91FF900C94E20BFF927A
:1019A0000F931F93CF93DF93222371F0C22F142F35
:1019B000F62ED82FC1506C2F6F0D202F412F8D2F59
:1019C0000E94790BC150B8F7DF91CF911F910F9111
:1019D000FF9008955F926F927F928F929F92AF9245
:1019E000BF92CF92DF92EF92FF920F931F93CF930C
:1019F000DF93182FD62EC42FC22E411112C0422FB2
:101A0000DF91CF911F910F91FF90EF90DF90CF90DA
:101A1000BF90AF909F908F907F906F905F900C944D
:101A20006211E42EF12CF194E194F108EE0CFF1C0C
:101A300083E0E80EF11CD0E0802F8170B82E802F5B
:101A40008270A82E802F8470982E802F8870882E08
:101A5000802F8071782E802F8072682E802F807466
:101A6000582EBB2039F04C2D6D2D6D1B8C2F810F06
:101A70000E946211AA2039F04C2D6D2D6C1B8D2F08
:101A8000810F0E946211992039F04C2D6D2D6C1B35
:101A9000812F8D1B0E946211882039F04C2D6D2DF5
:101AA0006D1B812F8C1B0E946211772039F04C2D09
:101AB0006D2F6D0D812F8C1B0E946211662039F0F5
:101AC0004C2D6C2F6D0D812F8D1B0E9462115520A6
:101AD00039F04C2D6C2F6D0D8D2F810F0E946211EE
:101AE00007FF07C04C2D6D2F6D0D8C2F810F0E94AD
:101AF0006211ED2FF0E0F7FE08C0EE0FFF1FEE0FB2
:101B0000FF1F3696EE0EFF1E0AC0EC1BF109EE0F0A
:101B1000FF1FEE0FFF1F3A96EE0EFF1EC150DF5F54
:101B2000CD1708F09ECFDF91CF911F910F91FF90BD
:101B3000EF90DF90CF90BF90AF909F908F907F906D
:101B40006F905F9008958F929F92AF92BF92CF92C5
:101B5000DF92EF92FF920F931F93CF93DF93182F93
:101B6000D62EC42FC22E41110FC0422FDF91CF912C
:101B70001F910F91FF90EF90DF90CF90BF90AF90AB
:101B80009F908F900C946211E42EF12CF194E194CB
:101B9000F108EE0CFF1C83E0E80EF11CBB24B394AB
:101BA000D0E0802F8370A82E802F8C70982E802FED
:101BB0008073882E007CAA2089F02C2D4B2D6D2D52
:101BC0006D1B8C2F810F0E94E20B2C2D41E04C0FDE
:101BD0006D2D6C1B8D2F810F0E94E20B992089F0D7
:101BE0002C2D4B2D6D2D6D1B812F8C1B0E94E20B1C
:101BF0002C2D41E04C0F6D2D6C1B812F8D1B0E94F5
:101C0000E20B882079F02C2D4B2D6D2D812F8C1B14
:101C10000E94E20B2C2D41E04C0F6D2D812F8D1B6E
:101C20000E94E20B002379F02C2D4B2D6D2D8C2F73
:101C3000810F0E94E20B2C2D41E04C0F6D2D8D2F5A
:101C4000810F0E94E20BED2FF0E0F7FE08C0EE0FCF
:101C5000FF1FEE0FFF1F3696EE0EFF1E0AC0EC1B95
:101C6000F109EE0FFF1FEE0FFF1F3A96EE0EFF1E5B
:101C7000C150DF5FB394CD1708F09DCFDF91CF91B6
:101C80001F910F91FF90EF90DF90CF90BF90AF909A
:101C90009F908F900895BF92CF92DF92EF92FF9224
:101CA0000F931F93CF93DF93EC01B62EF980F69438
:101CB000F694F694E42EE694E694E6948A818823DA
:101CC00029F18130C9F5C12CD12C8C2DCF14A0F570
:101CD00010E0082F0E0D88811817A0F48C9DF001DC
:101CE0008D9DF00D1124E10FF11D4B815C81E40FFE
:101CF000F51F4491612F6B0D20E0802F0E9425116C
:101D00001F5FE9CF8FEFC81AD80ADFCF00E010E0DD
:101D10000F1590F428816E2D600F209FC001219F28
:101D2000900D1124EB81FC814B2D8E0F9F1F0E9483
:101D3000E8100F5F1F4FECCFDF91CF911F910F91F4
:101D4000FF90EF90DF90CF90BF900895DF92EF92D9
:101D5000FF920F931F93CF93DF937C01262FDC011B
:101D600015968C91159767E00E947A15C82F1696E4
:101D70008C918C1302C0222351F000E028E340E84C
:101D800068E080E00E94CF0C81E08093C424F701DA
:101D9000C68300E028E344E068E080E00E94CF0CC6
:101DA000D70115968C9137E0D32E6D2D0E947A15B0
:101DB000492F440F440F440F485F60E086E090E2F3
:101DC0000E944B0E8091C424882361F1CD9DD02DBB
:101DD00011242C2F30E02F5F3F4FD29E8001D39EE5
:101DE000100D1124C8E08D2F90E080179107C4F4E6
:101DF000F7012481D217A0F4880F991FD7011296FA
:101E0000ED91FC911397E80FF91F2BE030E24C2F76
:101E100065E0808191810E94F40FDF5FC85FE3CFAE
:101E20001092C424DF91CF911F910F91FF90EF90FA
:101E3000DF9008950F93CF93DF93EC0100E020E44F
:101E400040E860E080E00E94CF0C2BE030E240E010
:101E500060E0888199810E94F40F61E0CE01DF91FA
:101E6000CF910F910C94A60EFC016D3011F118F476
:101E7000683009F115C06632A9F0683289F425810D
:101E8000422F50E0848190E001974817590711F4E0
:101E9000158202C02F5F2583CF0160E00E94A60E4D
:101EA0008FEF08958581811101C0848181508583E0
:101EB000F3CF858108958EEF08959F92AF92BF92E0
:101EC000CF92DF92EF92FF920F931F93CF93DF9306
:101ED000D82FC62ED42E790100E0D90114962C916A
:101EE000149713964C916D2D8C2D0E94CF0CF701F9
:101EF0008081811140C08381E82FE695E695E695C3
:101F0000877009F0EF5FD7011496CC911497EC9F7E
:101F1000F00111242D2F30E015968C911597281B78
:101F20003109E29FC001E39F900DF29F900D1124B3
:101F300011960D911C911297080F191FDC0E9D2C04
:101F40009C1AF701A380B12CD0E08D2F8C0DDA15EF
:101F500081F09D2F977021F4F801B4900F5F1F4F0F
:101F6000B7FE04C041E0692D0E946211BB0CDF5F27
:101F7000ECCFC15021F7DF91CF911F910F91FF90CE
:101F8000EF90DF90CF90BF90AF909F900895DF9239
:101F9000EF92FF920F931F93CF93DF93D62ED42F00
:101FA00079018C01C62FF80181918F018A3031F4BB
:101FB000F70184818F5FD80FCD2D0AC08D3041F09D
:101FC00097014D2F6C2F0E945D0FF7018381C80F81
:101FD000F80180818111E7CFDF91CF911F910F919F
:101FE000FF90EF90DF900895DF92EF92FF920F93B2
:101FF0001F93CF93DF938C01D62ED42F7901FC0150
:102000008491C62F8823B9F08A3031F4F701848196
:102010008F5FD80FCD2D0AC08D3041F097014D2F25
:102020006C2F0E945D0FF7018381C80F0F5F1F4F58
:10203000F8018491E7CFDF91CF911F910F91FF902D
:10204000EF90DF900895CF93DF93EA01D901FB0170
:1020500023816481FC01362F90E051E081918A3028
:1020600019F4360F90E006C08D3021F0920F591709
:1020700008F4592F80818111F1CF58833C93DF916F
:10208000CF9108950F931F93CF93DF93FC01EA0143
:102090008901DB0113962C91139714966C9154913E
:1020A000862F90E031E0552379F05A3019F4860FED
:1020B00090E007C040814D3021F0920F391708F4AD
:1020C000392F31965491EFCF3883F8018083DF9117
:1020D000CF911F910F91089508951F93CF93DF9390
:1020E0001F92CDB7DEB7182F88E08983BE016F5FDE
:1020F0007F4F80EC98E00E945C0A82E08093260685
:102100001093C3080E946C10BE016F5F7F4F80EC7C
:1021100098E00E94720A0F90DF91CF911F9108956D
:102120008770806B0C946D10CF93C82F982F9F777A
:10213000892F82958F7080610E946D108C2F8F7017
:10214000CF910C946D101F93CF93DF931F92CDB757
:10215000DEB7182F88E08983BE016F5F7F4F80EC68
:1021600098E00E945C0A82E0809325061093C308E1
:102170000E946C10BE016F5F7F4F80EC98E00E9460
:10218000720A0F90DF91CF911F9108951F93CF9303
:1021900087FD1AC06034C0F4C62F682F1C2F169517
:1021A00016951695812F0E94E80A28EF2103A001B9
:1021B00011244C0F511D21E030E0042E01C0220FEC
:1021C0000A94EAF7822301C080E0CF911F9108951D
:1021D000FF920F931F93CF93DF93182FF92ED62FD3
:1021E000C42F022F0E94AF0A8D2F0E9490108C2FB7
:1021F0000E949410C12FDF2D100F89910E94A3100F
:102200001C13FBCFDF91CF911F910F91FF90089589
:102210000F931F93CF9305EC14E2C0E08C2F0E9424
:10222000901080E00E94941020E840E06C2FC801DC
:102230000E94E810CF5F00581F4FC83079F7CF9148
:102240001F910F9108950C94C50A1F93CF93DF93AC
:10225000D82F162FC42F222389F04C2F612F8D2FBA
:102260000E94DA0A8D2F0E949010812F0E949410F4
:102270008C2FDF91CF911F910C94A3100E94E80A3C
:10228000C813EBCFDF91CF911F910895CF93DF93C8
:1022900085EC94E20E94AA0A0E94691280E40E94DE
:1022A0006D10D0E0C0E021E040E06C2F8D2F0E9447
:1022B0002511CF5FC038B9F7DF5FD83099F7DF91CC
:1022C000CF910895FF920F931F93CF93DF9387FDD4
:1022D0002FC0603468F5042F182FF62EF694F6946C
:1022E000F6942F2D38EF3203C0011124860F911D73
:1022F000C1E0D0E001C0CC0F8A95EAF7612F8F2DA5
:102300000E94E80A482F013029F030F0023031F401
:102310004C2704C04C2B02C0C0954C2320E0612FF9
:102320008F2DDF91CF911F910F91FF900C9425116C
:10233000DF91CF911F910F91FF9008950C94E80ABF
:102340000F931F93CF93DF9300D0CDB7DEB7182F35
:10235000062F2A8349830E94E80A2A814981213075
:1023600029F030F0223031F4842704C0842B02C0DD
:102370004095842320E0482F602F812F0F900F90ED
:10238000DF91CF911F910F910C9425118FEF8093C6
:10239000700080937100809372008093730080932B
:1023A0007400809375008093760008959FB7F89429
:1023B000E82FF0E0E059FF4F60958081682360834B
:1023C0009FBF08959FB7F894E82FF0E0E059FF4FC2
:1023D0008081682B60839FBF0895863011F060E094
:1023E00001C068E18091510081FF09C0636084E40D
:1023F00090E00E945B0660E480E00C94D6119FB7E9
:10240000F894809150008260809350009FBF80912B
:10241000510081FFFCCFEACF60E480E00E94E2112E
:1024200060E084E490E00C945B06615071098109DE
:102430009109D9F708951F93CF93DF931F92CDB7DA
:10244000DEB7182F88E08983BE016F5F7F4F80EC75
:1024500098E00E945C0A82E0809326061093C308ED
:1024600063E070E080E090E00E941512BE016F5FB3
:102470007F4F80EC98E00E94720A0F90DF91CF911D
:102480001F9108951F93CF93DF931F92CDB7DEB7AF
:10249000182F88E08983BE016F5F7F4F80EC98E042
:1024A0000E945C0A82E0809325061093C30863E0D3
:1024B00070E080E090E00E941512BE016F5F7F4FD8
:1024C00080EC98E00E94720A0F90DF91CF911F91EB
:1024D0000895CF92DF92EF92FF920F931F93CF93C5
:1024E000DF931F92CDB7DEB714E01093260661E2AA
:1024F00070E080E090E00E9415121093250661E2E2
:1025000070E080E090E00E94151288E0898380EC02
:1025100098E00E94F209C12CD12C760100E412E46B
:102520002FE030E040E0BE016F5F7F4F80EC98E02D
:102530000E94110A8091C00880648093C0088EEACE
:102540000E941B1285ED0E941B1280EA0E941B1242
:1025500088EA0E941B128FE30E941B1283ED0E94E7
:102560001B1280E00E941B1280E40E941B1281EA71
:102570000E941B1288EC0E941B128AED0E941B1203
:1025800082E10E941B1281E80E941B1283EE0E94CE
:102590001B1289ED0E941B1289E10E941B128BED18
:1025A0000E941B128CE30E941B1284EA0E941B12E1
:1025B00086EA0E941B1210E0812F806B0E941B1282
:1025C00080E10E941B1280E00E941B1200E080E06C
:1025D0000E9442120F5F0038D1F71F5F183061F779
:1025E00080E28093850665E07DE080E090E00E94D7
:1025F00015128FEA0E941B1265E372E880E090E0FA
:102600000E9415120F90DF91CF911F910F91FF90B3
:10261000EF90DF90CF900895EF92FF920F931F936A
:10262000CF938C01D801ED918D01EE23D1F0EF37DE
:10263000C8F7F0E0EE0FFF1FE356FE4DE080F1809B
:10264000C1E0D7018C918C1740F0F701EC0FF11D20
:1026500080810E944212CF5FF4CF80E00E9442123C
:10266000E1CFCF911F910F91FF90EF9008956150AE
:10267000710981099109D9F708951F93CF93DF93C9
:102680001F92CDB7DEB7182F88E08983BE016F5F38
:102690007F4F80EC98E00E945C0A82E080932606DF
:1026A0001093C30863E070E080E090E00E9437136D
:1026B000BE016F5F7F4F80EC98E00E94720A0F901E
:1026C000DF91CF911F910895EF92FF920F931F9387
:1026D000CF93DF931F92CDB7DEB710E082E0F82EE4
:1026E00098E0E92E812F806B0E943D1380E10E94CB
:1026F0003D1380E00E943D1300E0E982BE016F5F60
:102700007F4F80EC98E00E945C0AF09225061092C0
:10271000C30863E070E080E090E00E943713BE01E0
:102720006F5F7F4F80EC98E00E94720A0F5F003865
:1027300021F71F5F1830B1F60F90DF91CF911F91F5
:102740000F91FF90EF9008958091A80685FB2227B6
:1027500020F985FF05C09091DB2881E0892702C020
:1027600080E090E02093DB288170089587EE93E06D
:102770008093D8289093D9281092DA281092DD28D7
:102780001092DE281092DB281092DF2881E08093DF
:10279000DC280895CF93DF93CDB7DEB72597CDBF63
:1027A000DEBF49835A836B837C838D8348E060E07E
:1027B000CE0101960E944B0E2596CDBFDEBFDF9164
:1027C000CF9108950F931F93CF938C01C42F862F21
:1027D0008770806B0E943D139C2F9F77892F829575
:1027E0008F7080610E943D138C2F8F700E943D136B
:1027F000C801CF911F910F910C940C13CF92DF92CF
:10280000EF92FF9228E833E160E070E0CB0158E0FE
:10281000EFB7F89440910002446040930002EFBF8C
:102820005093860650938506C0902402D0902502CE
:10283000EE24D7FCE094FE2C6C0D7D1D8E1D9F1D9B
:102840002150310929F728E833E140E050E00E94A7
:10285000A815CA01B9010E94FA15FF90EF90DF9008
:10286000CF9008950895CF93DF93CDB7DEB7279724
:10287000CDBFDEBF0E94FE132DE73FE345E35EE3DD
:102880000E945E160E94C1160E94C71597FD09C0DE
:102890006093D4287093D5288093D6289093D72816
:1028A00008C01092D4281092D5281092D6281092E1
:1028B000D7284AE06FEC78E28091D4289091D5280F
:1028C0000E9442170E94641349E150E061E070E009
:1028D0008CEA94E20E94E2136FEC78E2CE0101965A
:1028E0000E943B178091D4289091D528A091D6289A
:1028F000B091D728181619061A061B0654F48A81B7
:102900008B838EE28A8380E28C8387E58D831E82AF
:1029100005C080E28A8387E58B831C8247E350E011
:1029200063E070E0CE0101960E94E2132796CDBFCE
:10293000DEBFDF91CF910895CF93DF93CDB7DEB7A0
:102940006797CDBFDEBF85E0E7EAF4E2DE011F96C0
:1029500001900D928A95E1F797E0F92E8E01085FBC
:102960001F4FF8018F2D11928A95E9F78CEE94E0B4
:10297000888799878BE992E28A879B8786E08C8794
:1029800023E0E22EED860E94AC090E94C6110E944F
:102990004611BE016F5F7F4F80E092E00E944F08BA
:1029A000AE014C5E5F4F61E080E092E00E94BF08A4
:1029B0008A819B819F7890619B83817E80618A83DD
:1029C00081E08C83ED8282E08C8B88E08D8BBE0170
:1029D0006F5F7F4F80E092E00E94F107AE014C5E96
:1029E0005F4F61E080E092E00E947408F092A200E4
:1029F0000E94B61380E10E943D1380E00E943D13C7
:102A000080EB0E943D13C8010E941A0F80E092E003
:102A10000E945A09E12CF12CDD24D3948091DC280A
:102A2000882309F44CC08091A80686FB992790F969
:102A300086FF05C02091DD282D2530E002C020E072
:102A400030E09093DD282115310529F066E2C801B8
:102A50000E94340F48C08091A80684FB992790F902
:102A600084FF04C02091DE282D2530E09093DE28DD
:102A7000232B29F068E2C8010E94340F34C00E9461
:102A8000A413882381F16DE0C8010E94340F1092D5
:102A9000DC2881110AC00E9464134F855889698916
:102AA0007A898B890E94CA131EC0853029F40E943E
:102AB00064130E94331417C0D092DC2814C00E9403
:102AC000A413882381F0EA94EF2851F4D092DC28F3
:102AD0000E946413C8010E941A0FE12CF12C03C05C
:102AE000EE24E394F12C65E372E880E090E00E942C
:102AF000371394CF991B79E004C0991F961708F0FB
:102B0000961B881F7A95C9F780950895A1E21A2E21
:102B1000AA1BBB1BFD010DC0AA1FBB1FEE1FFF1F81
:102B2000A217B307E407F50720F0A21BB30BE40BD1
:102B3000F50B661F771F881F991F1A9469F7609518
:102B40007095809590959B01AC01BD01CF010895D2
:102B5000052E97FB1EF400940E94BF1557FD07D069
:102B60000E94861507FC03D04EF40C94BF155095B7
:102B70004095309521953F4F4F4F5F4F0895909569
:102B80008095709561957F4F8F4F9F4F089504D02A
:102B90006894B1118DC0089570D088F09F5790F05F
:102BA000B92F9927B751A0F0D1F0660F771F881F72
:102BB000991F1AF0BA95C9F712C0B13081F077D0D9
:102BC000B1E0089574C0672F782F8827B85F39F077
:102BD000B93FCCF3869577956795B395D9F73EF4D1
:102BE00090958095709561957F4F8F4F9F4F089579
:102BF000E89409C097FB3EF4909580957095619597
:102C00007F4F8F4F9F4F9923A9F0F92F96E9BB274C
:102C10009395F695879577956795B795F111F8CFC8
:102C2000FAF4BB0F11F460FF1BC06F5F7F4F8F4F33
:102C30009F4F16C0882311F096E911C0772321F029
:102C40009EE8872F762F05C0662371F096E8862FC1
:102C500070E060E02AF09A95660F771F881FDAF718
:102C6000880F9695879597F9089557FD9058440FCA
:102C7000551F59F05F3F71F04795880F97FB991FDB
:102C800061F09F3F79F08795089512161306140698
:102C9000551FF2CF4695F1DF08C016161706180625
:102CA000991FF1CF86957105610508940895E89400
:102CB000BB2766277727CB0197F908950BD0C1C0B2
:102CC000B2D028F0B7D018F0952309F07AC0A8C088
:102CD0001124EECFCADFA0F3959FD1F3950F50E0FA
:102CE000551F629FF001729FBB27F00DB11D639FBE
:102CF000AA27F00DB11DAA1F649F6627B00DA11D64
:102D0000661F829F2227B00DA11D621F739FB00D09
:102D1000A11D621F839FA00D611D221F749F332779
:102D2000A00D611D231F849F600D211D822F762F12
:102D30006A2F11249F5750408AF0E1F088234AF00F
:102D4000EE0FFF1FBB1F661F771F881F915050405B
:102D5000A9F79E3F510570F034C0AACF5F3FECF356
:102D6000983EDCF3869577956795B795F795E79547
:102D70009F5FC1F7FE2B880F911D9695879597F958
:102D800008957BDFE0F09E37D8F09639B8F49E388E
:102D900048F4672F782F8827985FF9CF8695779525
:102DA000679593959539D0F3B62FB1706B0F711D60
:102DB000811D20F4879577956795939508C022C06B
:102DC00077CF97F99F6780E870E060E008958823E7
:102DD00071F4772321F09850872B762F07C0662354
:102DE00011F499270DC09051862B70E060E02AF015
:102DF0009A95660F771F881FDAF7880F9695879543
:102E000097F908959F3F31F0915020F48795779579
:102E10006795B795880F911D9695879597F90895B1
:102E20009FEF80EC089500240A94161617061806E2
:102E30000906089500240A941216130614060506BE
:102E40000895092E0394000C11F4882352F0BB0F4F
:102E500040F4BF2B11F460FF04C06F5F7F4F8F4FB2
:102E60009F4F0895FB01DC0102C001900D9241507B
:102E70005040D8F70895FB01DC0101900D9200202D
:102E8000E1F70895BB274A3031F4992322F4BDE2DB
:102E9000909581959F4F0C944E17BB27FB015527AA
:102EA000AA27880F991FAA1FA41710F0A41B8395A7
:102EB0005051B9F7A05DAA3308F0A95DA19300971E
:102EC00079F7B111B1931192CB010C946717DC0122
:102ED000FC01672F71917723E1F7329704C07C9151
:102EE0006D9370836291AE17BF07C8F30895F8948D
:022EF000FFCF12
:102EF2009BB78BBFFB018091CA014093CA017DE958
:102F020070933400E8958093CA019BBF0895209185
:102F1200CF0127FDFCCF9BB78BBFFB018091CA017C
:102F220023E22093CA010A01E89511248093CA0181
:042F32009BBF0895A4
:102F3600000E060C0400040801FC0100000206074E
:102F4600207F05100810201003826C1001FE03106C
:102F56006C8203C8A8980418A0A078058850205051
:102F6600880538C030C0380518608060180478803D
:102F760080F803087C880490A8A84803F810080481
:102F8600102828F804F8282810047088887004F897
:102F96001008F005F808F008F001FE04FE2050883D
:102FA60002807A01FA04FE1008F00410A8A878033B
:102FB600FC12020470A8A83004708888FE04708889
:102FC600888804FE88887004708888F802020403E2
:102FD60080808003040204038282FE030638C00355
:102FE600FE828205C2A2928A86050608F0080605B8
:102FF600C6281028C6053EC038C03E050E30C03073
:103006000E047E80807E050202FE0202044C92922D
:103016006404FE1232CC057C82A242BC04FE12126B
:103026000C047C82827C05FE041860FE05FE040802
:1030360004FE04FE80808005FE1028448204408041
:10304600807E0382FE8204FE1010FE057C82929230
:10305600F404FE12120204FE92928204FE82827C24
:10306600047C82824404FE92926C05F8141214F8D1
:1030760008384492AAAABA2418050402A2120C041B
:10308600824428100428282828041028448201C4D1
:103096000144054C9292927C056C9292926C0502C8
:1030A60002F20A06057C92929264055E8A8A8A7208
:1030B60005302824FE2005448292926C0584C2A223
:1030C600928C050084FE8000057CA2928A7C03C057
:1030D600380601800310101001C0031038100328B1
:1030E600102803824438033844820106056C92ACEA
:1030F60040A005462610C8C4054854FE5424052899
:10310600FE28FE280306000601BE020000DA21D8CA
:1031160021D421CE21C821C221BC21BA21B621B297
:1031260021AE21AA21A821A421A2219E2198219283
:10313600218C21862180217A2174216E21682162C9
:103146002160215E21592154214F21492140213AF4
:1031560021352130212B21262121211B2116211247
:10316600210D2107210221FC20F620F120EC20E68A
:1031760020E120DC20D620D120CB20C520BF20B9DD
:1031860020B320AF20AB20A720A3209F209C209710
:103196002092208D20882083207F207A207520731E
:1031A6002070206B20692063205E20592054204F18
:1031B600204B20462042203D20372031202B202640
:1031C6002022201E201C2018201220D904CE04C341
:1031D60004B804AD04A00430F8D8080808080C0C9C
:1031E6002C4414240696A692A28AD2424282030353
:1031F600060C304000000000000000000000000047
:1032060000000000000000000000000000000000B8
:1032160000000000000000000000000000000000A8
:103226000000000000000000000000000000000098
:103236000000000000000000000000000000000088
:103246000000000000000000000000000000000078
:10325600000000000000000000030F3CF0C000006A
:103266000001071921C000000000C0F0F81C0E067E
:103276000707030303030307060600000080E06058
:103286003030303060E080000000F0E0C060303068
:1032960060E0C0C0E060303060E0C080000000E068
:1032A600E0703030303060E0C0000000E0E0000048
:1032B6000000000000E0E0000000FFFF00000060EA
:1032C60060303030306060E0800000FFFFE060304A
:1032D600303060E0C08000000000000000030F3CBA
:1032E600F0C000000000030C08000F3F7CE0C08027
:1032F6008080000000000080808000003F7FC0804A
:103306000000000080C07F3F0000FFFF00000000BB
:103316000000FFFF000000000000FFFF000000FFAC
:10332600FF800000000080C1FF3F00007FFFC080DB
:1033360000000080C0FFFF000000FFFF0000F0F863
:103346008C060606068CCCFFFF0000FFFF800000FF
:10335600000080C0E37F0C000000000000000000B9
:1033660000030F1C381818180C0C0C060400010179
:10337600010303030303030301010000000001012D
:103386000303030301010000000003030000000023
:103396000000030300000000000003030000003FDC
:1033A6003F010303030301010000000000010103C4
:1033B60003030301000303000000030300000001F0
:1033C60003030303030101030300000103030303D3
:1033D60003030101000000802000A722506F7765DB
:1033E6007220636F6E73756D7074696F6E3A20002C
:00000001FF
