:100000000C94FE000C941D010C941D010C941D0118
:100010000C941D010C941D010C941D010C941D01E8
:100020000C941D010C941D010C941D010C941D01D8
:100030000C941D010C941D010C941D010C941D01C8
:100040000C941D010C941D010C941D010C941D01B8
:100050000C941D010C941D010C941D010C941D01A8
:100060000C941D010C941D010C941D010C941D0198
:100070000C941D010C941D010C941D010C941D0188
:100080000C941D010C941D010C941D010C941D0178
:100090000C941D010C941D010C941D010C94A905D8
:1000A0000C94DB050C940D060C943F060C941D017A
:1000B0000C941D010C941D010C941D010C941D0148
:1000C0000C941D010C941D010C941D010C941D0138
:1000D0000C941D010C941D010C941D010C941D0128
:1000E0000C941D010C941D010C941D010C941D0118
:1000F0000C941D010C941D010C941D010C941D0108
:100100000C941D010C941D010C941D010C941D01F7
:100110000C941D010C941D010C941D010C94E10420
:100120000C9413050C9445050C9477050C941D0153
:100130000C941D010C941D010C941D010C941D01C7
:100140000C941D010C941D010C941D010C941D01B7
:100150000C941D010C941D010C941D010C941D01A7
:100160000C941D010C941D010C941D010C941D0197
:100170000C941D010C941D010C941D010C941D0187
:100180000C941D010C941D010C941D010C941D0177
:100190000C941D010C941D010C941D010C941D0167
:1001A0000C941D010C941D010C941D010C941D0157
:1001B0000C941D010C941D010C941D010C941D0147
:1001C0000C941D010C941D010C941D010C941D0137
:1001D0000C941D010C941D010C941D010C941D0127
:1001E0000C941D010C941D010C941D010C941D0117
:1001F0000C941D010C941D010C941D0111241FBEB3
:10020000CFEFCDBFDFE2DEBF14E2A0E0B0E2E0E579
:10021000F6E200E00BBF02C007900D92A43AB107CE
:10022000D9F716E2A4EAB4E201C01D92AD3BB107D2
:10023000E1F70E941D110C9404130C940000CF925E
:10024000DF92EF92FF920F931F93CF93DF93EC0116
:100250006A017B01DB01CA010197A109B109BC0157
:10026000CD01600F711F821F931FA70196010E948D
:100270009E11213831054105510528F521343105FC
:100280004105510578F4213231054105510560F4ED
:10029000213160F4293060F4253060F4233060F4BB
:1002A00090E80BC093E009C092E007C092E805C057
:1002B00091E003C091E801C090E028812C77922B57
:1002C000988381E001C08FEFDF91CF911F910F9153
:1002D000FF90EF90DF90CF9008958091CF0187FD40
:1002E000FCCF0895682F70E082E00C94D1041F9336
:1002F000CF93DF93C0ECD1E01A858A8761E08BEC65
:1003000091E00E94DB041A87DF91CF911F9108953D
:10031000CF93DF93EC0188E00E947201888389E02B
:100320000E94720189838AE00E9472018A838BE0B5
:100330000E9472018B838CE00E9472018C838DE09D
:100340000E9472018D8380E10E9472018E8382E19E
:100350000E9472018F8383E10E947201888784E189
:100360000E947201898785E10E9472018A87DF916C
:10037000CF910895CF93DF93EC010E946D01ECECD7
:10038000F1E0808188608083D05F88819081977F51
:100390009083DF91CF910895CF92DF92EF92FF92F9
:1003A0000F931F93CF93DF9300D0CDB7DEB78C01AF
:1003B0007B0149835A830E946D018CECC82EDD2499
:1003C000D394F601908198609083B801705F498161
:1003D0005A81C7010E94BF12F6018081877F808306
:1003E0000F900F90DF91CF911F910F91FF90EF90A1
:1003F000DF90CF9008950E946D018091CF0181FF21
:1004000008C086E38093CA0161E08BEC91E00C9414
:10041000DB040895CF93DF9300D0CDB7DEB76A83B6
:1004200089830E946D01ACECB1E09C9198609C9333
:100430008981E82FF0E0F05F6A8160838C91877F8B
:100440008C930F900F90DF91CF910895EF92FF92D0
:100450000F931F93CF93DF9300D0CDB7DEB7182F44
:1004600080ECE82EFF24F394F701028569839A83D8
:100470000E94FB010E946D016981812F0E940A0286
:10048000F70112829A819183108385E3828761E06C
:100490008BEC91E00E94DB04F70102870F900F9034
:1004A000DF91CF911F910F91FF90EF9008950F93DF
:1004B0001F93CF938C010E946D01C0E0F801619100
:1004C0008F018C2F0E940A02CF5FC032B9F7CF9103
:1004D0001F910F910895CF93DF931F92CDB7DEB791
:1004E00089830E946D01898120E2829FC0011124CD
:1004F000E0ECF1E012829183808385E30F90DF913D
:10050000CF910C947701CF92DF92EF92FF920F93ED
:100510001F93CF93DF93EC017B018A010115110535
:1005200041F1CE018F719927892BA9F40032110571
:1005300090F0C7010E945702CE0125E0969587955D
:100540002A95E1F70E946B02A09680E2E80EF11C6A
:1005500000521109E3CF6E01EFEFCE1ADE0AF70168
:1005600061917F01CE010E94260201501109E6012E
:10057000D5CFDF91CF911F910F91FF90EF90DF903A
:10058000CF900895CF93DF931F92CDB7DEB78983C5
:100590000E946D01898120E2829FC0011124E0EC5C
:1005A000F1E012829183808384E30F90DF91CF91F9
:1005B0000C947701CF93DF93D82F0E94FB010E9408
:1005C0006D01C0E06D2F8C2F0E940A02CF5FC032F8
:1005D000C9F7DF91CF910895CF93DF931F92CDB7E5
:1005E000DEB789830E946D01898120E2829FC0016C
:1005F0001124E0ECF1E012829183808382E30F907A
:10060000DF91CF910C947701CF93C82F8FEF0E9489
:10061000DA028C2FCF910C94EC020E946D0180E3E2
:100620000C9477018FEF0E94DA020C940D03CF92A5
:10063000DF92EF92FF921F93CF93DF93C0ECD1E054
:100640001A85EAE3EA876883C72ED82EE92EFF24AD
:10065000C982AA27BB278A832C83BB27A52F942F67
:10066000832F8D83CA01AA27BB278E8361E08BEC81
:1006700091E00E94DB041A87DF91CF911F91FF90D8
:10068000EF90DF90CF900895EF92FF920F931F931A
:10069000CF93DF93EA0189017B010E946D01CE01B6
:1006A000800F911FDE01B7016C1B7D0B8D01060FC2
:1006B000171FA817B90739F020E030E02BBFF80169
:1006C00007910D93F3CFDF91CF911F910F91FF9081
:1006D000EF900895EF92FF920F931F93CF93DF93C4
:1006E00077277A01E20EF31EEA018B01041B150B3A
:1006F000BE01600F711FCE15DF0529F081E00E9459
:10070000D1048993F5CFDF91CF911F910F91FF9085
:10071000EF9008952F923F924F925F926F927F9247
:100720008F929F92AF92BF92CF92DF92EF92FF9201
:100730000F931F93CF93DF9300D0CDB7DEB75A014D
:1007400069017B0110E022242A94322CC114D104C7
:1007500009F450C0412C512C32014201002391F088
:10076000B20181E00E94D1048983B2016F5F7F4FA3
:1007700081E00E94D1048A8389819A81019621F0C7
:1007800011E002C029823A82C114D10401F1E814B7
:10079000F90469F481E0C81AD108EFEFEE1AFE0AF5
:1007A000F50181915F018983C114D10481F0FFEFCC
:1007B0008F1A9F0AE814F90451F421E0C21AD108F3
:1007C0008FEFE81AF80AF50181915F018A83498168
:1007D0005A81C301B2010E941513F2E04F0E511C61
:1007E000611C711C411421E052066104710409F07E
:1007F000B4CFACCF112341F00E946D0148E160E01D
:1008000070E0CB010E9406130E946D014AE160E096
:1008100070E0CB010F900F90DF91CF911F910F915E
:10082000FF90EF90DF90CF90BF90AF909F908F9010
:100830007F906F905F904F903F902F900C94061395
:100840002F923F924F925F926F927F928F929F92E0
:10085000AF92BF92CF92DF92EF92FF920F931F93CE
:10086000CF93DF93CDB7DEB72697CDBFDEBF3A017A
:1008700069014B017B01EE2422242A94322CC114FD
:10088000D10409F45EC00E946D0127015394570101
:1008900010E0B50180E090E0002359F08BBFFB0130
:1008A0002791369129833A832F3F3F4F21F011E062
:1008B00002C029823A82C114D10401F18A149B0436
:1008C00069F4E1E0CE1AD108FFEF8F1A9F0AF30115
:1008D00021913F012983C114D10481F095012F5F3B
:1008E0003F4F8216930651F4F1E0CF1AD1082FEF53
:1008F000821A920AF30121913F012A8349815A8188
:100900000E941513F2E0AF0EB11CA414B50409F057
:10091000C0CFB70180E090E0EB827C838D839E8323
:10092000112321F00E946D0145E203C00E946D0178
:1009300044E26B817C818D819E810E94061375014A
:100940009ECF2696CDBFDEBFDF91CF911F910F9135
:10095000FF90EF90DF90CF90BF90AF909F908F90DF
:100960007F906F905F904F903F902F9008950F93DE
:100970001F93CF93DF931F92CDB7DEB789830E9479
:100980006D0100EC11E08981F801808387E00E940D
:100990007701F80184810F90DF91CF911F910F9122
:1009A00008954091CA01E62FF72F8093CA018491E0
:1009B0004093CA0108951BBEFC0128ED24BF60834B
:1009C00008951F920F920FB60F9211240BB60F923B
:1009D0002F933F934F935F936F937F938F939F9347
:1009E000AF93BF93EF93FF93409124025091250260
:1009F000E091AA26F091AB2661E080E092E00995B3
:100A0000FF91EF91BF91AF919F918F917F916F91E6
:100A10005F914F913F912F910F900BBE0F900FBEA2
:100A20000F901F9018951F920F920FB60F921124DE
:100A30000BB60F922F933F934F935F936F937F93D8
:100A40008F939F93AF93BF93EF93FF9340912C02AB
:100A500050912D02E091AA26F091AB2662E080E051
:100A600092E00995FF91EF91BF91AF919F918F9186
:100A70007F916F915F914F913F912F910F900BBE9E
:100A80000F900FBE0F901F9018951F920F920FB6E8
:100A90000F9211240BB60F922F933F934F935F93B6
:100AA0006F937F938F939F93AF93BF93EF93FF9336
:100AB0004091340250913502E091AA26F091AB2684
:100AC00064E080E092E00995FF91EF91BF91AF91D2
:100AD0009F918F917F916F915F914F913F912F9156
:100AE0000F900BBE0F900FBE0F901F9018951F9286
:100AF0000F920FB60F9211240BB60F922F933F93C4
:100B00004F935F936F937F938F939F93AF93BF9315
:100B1000EF93FF9340913C0250913D02E091AA2651
:100B2000F091AB2668E080E092E00995FF91EF91AB
:100B3000BF91AF919F918F917F916F915F914F91F5
:100B40003F912F910F900BBE0F900FBE0F901F90F3
:100B500018951F920F920FB60F9211240BB60F9299
:100B60002F933F934F935F936F937F938F939F93B5
:100B7000AF93BF93EF93FF9340916402509165024E
:100B8000E091A826F091A92661E080E492E0099521
:100B9000FF91EF91BF91AF919F918F917F916F9155
:100BA0005F914F913F912F910F900BBE0F900FBE11
:100BB0000F901F9018951F920F920FB60F9211244D
:100BC0000BB60F922F933F934F935F936F937F9347
:100BD0008F939F93AF93BF93EF93FF9340916C02DA
:100BE00050916D02E091A826F091A92662E080E480
:100BF00092E00995FF91EF91BF91AF919F918F91F5
:100C00007F916F915F914F913F912F910F900BBE0C
:100C10000F900FBE0F901F9018951F920F920FB656
:100C20000F9211240BB60F922F933F934F935F9324
:100C30006F937F938F939F93AF93BF93EF93FF93A4
:100C40004091740250917502E091A826F091A92676
:100C500064E080E492E00995FF91EF91BF91AF913C
:100C60009F918F917F916F915F914F913F912F91C4
:100C70000F900BBE0F900FBE0F901F9018951F92F4
:100C80000F920FB60F9211240BB60F922F933F9332
:100C90004F935F936F937F938F939F93AF93BF9384
:100CA000EF93FF9340917C0250917D02E091A82642
:100CB000F091A92668E080E492E00995FF91EF9118
:100CC000BF91AF919F918F917F916F915F914F9164
:100CD0003F912F910F900BBE0F900FBE0F901F9062
:100CE0001895DF92EF92FF920F931F93CF93DF93AC
:100CF0007C018B01E11482E0F80651F461E270E0BE
:100D000082E00E94D104C82FD0E060E270E00EC003
:100D1000E0E4EE16E2E0FE06D1F565E270E082E086
:100D20000E94D104C82FD0E064E270E082E00E940B
:100D3000D104DC2FCC27C82BDFB6F894C7010E9462
:100D40009E07F701808192E09083C487D587F801E0
:100D500025813681F701208F318FF8019281F701CB
:100D60009283F8019481F7019483F8019381F7014C
:100D70009383F8019181F70191838170F80190814B
:100D8000892BF7018083C7010E94BD07DFBEDF9179
:100D9000CF911F910F91FF90EF90DF900895FF92F8
:100DA0000F931F93CF93DF93EC018B01FFB6F89461
:100DB0000E949E078881807CF8018083888D998DB0
:100DC000858396838A8182838C8184838B818383CC
:100DD00089818183CE010E94BD07FFBEDF91CF9143
:100DE0001F910F91FF900895AF92BF92DF92EF9203
:100DF000FF920F931F93CF93DF931F92CDB7DEB770
:100E00007C018A01862F837029F4862F869586952A
:100E100092E002C0862F90E080FF9F5F570180E242
:100E2000A80EB11CE8E09E9FA00CB11C1124DFB6F7
:100E3000F894C70169830E949E07F8018081F5013B
:100E40008083F8018281F5018283F8018181F501B7
:100E50008183698160FF04C0F8018381F501868385
:100E6000C7010E94BD07DFBE0F90DF91CF911F9198
:100E70000F91FF90EF90DF90BF90AF900895AF92E9
:100E8000BF92DF92EF92FF920F931F93CF93DF9366
:100E90001F92CDB7DEB77C018A01862F837029F4BB
:100EA000862F8695869592E002C0862F90E080FF7F
:100EB0009F5F570180E2A80EB11CE8E09E9FA00C46
:100EC000B11C1124DFB6F894C70169830E949E0704
:100ED000F5018081F8018083F5018281F801828328
:100EE000F5018181F8018183698160FF04C0F5010A
:100EF0008681F8018383C7010E94BD07DFBE0F9082
:100F0000DF91CF911F910F91FF90EF90DF90BF90F5
:100F1000AF9008952FB7F894811532E0930729F424
:100F20006093AA267093AB2607C08034924021F4C8
:100F30006093A8267093A9262FBF0895811522E0FB
:100F4000920759F48091A52491E0980F9093A524DD
:100F5000811112C062E081E00DC08034924061F4E2
:100F60008091A42491E0980F9093A424811104C04F
:100F700062E082E00C94900E0895811522E09207C1
:100F800051F48091A52481508093A524811111C032
:100F900062E081E00CC08034924059F48091A42436
:100FA00081508093A424811104C062E082E00C94FB
:100FB0009C0E08951F93CF93DF93EC011FB7F89415
:100FC0000E949E078881816088831FBF9FB7F89425
:100FD000ECEAF6E281818F5F81839FBFDF91CF9141
:100FE0001F910895CF93CFB7F894FC0120812E7FF5
:100FF00020830E94BD07CFBF9FB7F894ECEAF6E2CA
:101000008181815081839FBFCF910895811522E016
:10101000920721F481E09091A52406C0803492408B
:1010200029F481E09091A424911101C080E00895F9
:10103000AB01982F969596959695877021E030E0B4
:10104000B90101C0660F8A95EAF720E2929FC001BC
:1010500011249A5F0C94080960E078E18EE20E9406
:10106000180860E078E18DE20E94180860E078E1FD
:101070008CE20E94180863E070E089E00E94180882
:1010800063E070E088E00E94180863E070E08AE0A6
:101090000E94180863E070E085E10E94180863E090
:1010A00070E087E10E94180863E070E084E10E942C
:1010B000180861E070E085E20E94180863E070E0C3
:1010C00083E20E94180863E070E085E20E9418083D
:1010D00063E070E086E20E94180863E070E087E257
:1010E0000C941808CF93DF93EC01C03C88E0D8073C
:1010F00019F468E083E00DC0C03C89E0D80719F41A
:1011000068E084E006C0C03C8AE0D80721F468E0CB
:1011100085E00E94900E888180618883DF91CF9165
:101120000895EF92FF920F931F93CF937C01C42FEA
:10113000B901A80100E814E82EE130E00E941F0187
:1011400087FD0BC0F7019081F4E0CF9FA00111242F
:101150004C70937F492BF7014083CF911F910F91E2
:10116000FF90EF900895FB01460F571FE417F50716
:1011700051F02191DC0113962C93DC0112962C91F5
:1011800027FFFBCFF3CF80E00895DC01FB01460F82
:10119000571F8FEFE417F50769F013968C93139799
:1011A00012969C91129797FFFBCF13969C911397E1
:1011B0009193F0CF80E00895FB018081E82FE695C0
:1011C000E695E69540E2E49FF0011124FA5F87700E
:1011D00021E030E0A90102C0440F551F8A95E2F7D3
:1011E00046830895FB018081E82FE695E695E69514
:1011F00040E2E49FF0011124FA5F877021E030E0C3
:10120000A90102C0440F551F8A95E2F7458308954E
:10121000FC0180E090E0262F30E0D901082E02C0CA
:10122000B595A7950A94E2F7A0FF05C0DF01A80FC6
:10123000B91F50965C9301968830910571F740FF75
:1012400007C041FF02C0658301C0668361830895C2
:10125000628308958093A6249093A7240895E42F91
:10126000F0E0AF0130E8639F400D511D1124E09183
:10127000A624F091A724E40FF51F2E0FDC013D9169
:10128000CD0131932E13FACF0895E42FF0E0AF0192
:1012900030E8639F400D511D1124E091A624F09188
:1012A000A724E40FF51FDC01820F91919D938A130F
:1012B000FCCF08952091A6243091A72490E8899F1F
:1012C000200D311D1124F901E60FF11D4083089511
:1012D0002091A6243091A72490E8899F200D311DEC
:1012E0001124F901E60FF11D80810895FF920F93FB
:1012F0001F93CF93DF9387FD2EC0603260F5042FDC
:10130000182FF62EF694F694F6942F2D38EF32031C
:10131000C0011124860F911DC1E0D0E001C0CC0FA7
:101320008A95EAF7612F8F2D0E946809482F0130B6
:1013300029F030F0023031F44C2704C04C2B02C0AD
:10134000C0954C23612F8F2DDF91CF911F910F916D
:10135000FF900C945A09DF91CF911F910F91FF904C
:1013600008951F93CF9387FD1AC06032C0F4C62F33
:10137000682F1C2F169516951695812F0E946809C7
:1013800028EF2103A00111244C0F511D21E030E072
:10139000042E01C0220F0A94EAF7822301C080E0E4
:1013A000CF911F9108950F931F93CF93DF9300D098
:1013B000CDB7DEB7182F062F2A8349830E94580E17
:1013C0002A814981213029F030F0223031F48427FC
:1013D00004C0842B02C04095842320E0482F602F56
:1013E000812F0F900F90DF91CF911F910F910C944F
:1013F000DF0DFF920F931F93CF93DF93082F842F5E
:1014000090E0800F911D8138910514F040E8401B59
:10141000442309F451C0162F16951695169538EFEA
:101420003103C0011124860F911D61E070E0082E88
:1014300001C0660F0A94EAF7F62E213031F040F031
:101440002230D1F5CFEFC40F28C0CFEFC40F05C0B5
:10145000CFEFC40FD62FD09510C0DC2FD00F6D2F3B
:10146000812F0E94580E482F4F2920E06D2F812F89
:101470000E94DF0DC15088F71FC0FC2EF00E6F2DAB
:10148000812F0E94580E482F4D2320E06F2D812F71
:101490000E94DF0DC15088F70FC0DC2FD00F6D2FD9
:1014A000812F0E94580E482F4F2520E06D2F812F4D
:1014B0000E94DF0DC15088F7DF91CF911F910F91EE
:1014C000FF900895EF92FF920F931F93CF93DF93B6
:1014D000942F442309F44DC04FEF460F940F691326
:1014E00009C0422FDF91CF911F910F91FF90EF9094
:1014F0000C941C0E9F3108F09FE1162F169516953F
:101500001695092F0695069506956770EFEFF0E0A2
:10151000AF0101C0440F6A95EAF7977067E070E089
:10152000691B71097F0102C0F594E7946A95E2F79F
:10153000101304C04E21682F812F13C0D22FC82F43
:10154000682F812F0E945A0E1F5F2D2F101730F425
:101550004FEF6C2F812F0E945A0EF6CF4E2D6C2F1D
:10156000802FDF91CF911F910F91FF90EF900C94FE
:101570005A0EDF91CF911F910F91FF90EF90089538
:101580008F929F92BF92CF92DF92EF92FF920F9332
:101590001F93CF93DF93D82F162FB02E481728F420
:1015A000122F262F8D2FD42F482FC42FCD1B211B58
:1015B000F22EC7FF03C0C1950FEF01C001E027FF66
:1015C00005C0F22EF194CC24CA9402C0CC24C3945A
:1015D000FC16CCF4EF2CEC1AD12C8C2E992487FC21
:1015E00090948D2D90E08816990634F14B2D612F43
:1015F0008D2F0E941C0EE7FC02C0EC1A1C0DEF0C94
:10160000D00FD394EECFEC2EEF18D12C8F2C992441
:1016100087FC90948D2D90E0881699066CF04B2DE8
:10162000612F8D2F0E941C0EE7FC02C0EF18D00F17
:10163000EC0E1C0DD394EECFDF91CF911F910F9143
:10164000FF90EF90DF90CF90BF909F908F90089584
:10165000FF920F931F93CF93DF93D82F162FC42F92
:10166000F22E202F0E94F9096FEF6F0D610F202FCE
:101670004C2F8D2F0E94F909202F4F2D612F8D2F78
:101680000E94620A8FEF8C0F202F4F2D612F8D0F3C
:10169000DF91CF911F910F91FF900C94620AFF92FE
:1016A0000F931F93CF93DF93222371F0C22F142F38
:1016B000F62ED82FC1506C2F6F0D202F412F8D2F5C
:1016C0000E94F909C150B8F7DF91CF911F910F9196
:1016D000FF9008955F926F927F928F929F92AF9248
:1016E000BF92CF92DF92EF92FF920F931F93CF930F
:1016F000DF93182FD62EC42FC22E411112C0422FB5
:10170000DF91CF911F910F91FF90EF90DF90CF90DD
:10171000BF90AF909F908F907F906F905F900C9450
:101720001C0EE42EF12CF194E194F108EE0CFF1C58
:1017300083E0E80EF11CD0E0802F8170B82E802F5E
:101740008270A82E802F8470982E802F8870882E0B
:10175000802F8071782E802F8072682E802F807469
:10176000582EBB2039F04C2D6D2D6D1B8C2F810F09
:101770000E941C0EAA2039F04C2D6D2D6C1B8D2F54
:10178000810F0E941C0E992039F04C2D6D2D6C1B81
:10179000812F8D1B0E941C0E882039F04C2D6D2D41
:1017A0006D1B812F8C1B0E941C0E772039F04C2D55
:1017B0006D2F6D0D812F8C1B0E941C0E662039F041
:1017C0004C2D6C2F6D0D812F8D1B0E941C0E5520F2
:1017D00039F04C2D6C2F6D0D8D2F810F0E941C0E3A
:1017E00007FF07C04C2D6D2F6D0D8C2F810F0E94B0
:1017F0001C0EED2FF0E0F7FE08C0EE0FFF1FEE0FFE
:10180000FF1F3696EE0EFF1E0AC0EC1BF109EE0F0D
:10181000FF1FEE0FFF1F3A96EE0EFF1EC150DF5F57
:10182000CD1708F09ECFDF91CF911F910F91FF90C0
:10183000EF90DF90CF90BF90AF909F908F907F9070
:101840006F905F9008958F929F92AF92BF92CF92C8
:10185000DF92EF92FF920F931F93CF93DF93182F96
:10186000D62EC42FC22E41110FC0422FDF91CF912F
:101870001F910F91FF90EF90DF90CF90BF90AF90AE
:101880009F908F900C941C0EE42EF12CF194E19417
:10189000F108EE0CFF1C83E0E80EF11CBB24B394AE
:1018A000D0E0802F8370A82E802F8C70982E802FF0
:1018B0008073882E007CAA2089F02C2D4B2D6D2D55
:1018C0006D1B8C2F810F0E94620A2C2D41E04C0F62
:1018D0006D2D6C1B8D2F810F0E94620A992089F05B
:1018E0002C2D4B2D6D2D6D1B812F8C1B0E94620AA0
:1018F0002C2D41E04C0F6D2D6C1B812F8D1B0E94F8
:10190000620A882079F02C2D4B2D6D2D812F8C1B98
:101910000E94620A2C2D41E04C0F6D2D812F8D1BF2
:101920000E94620A002379F02C2D4B2D6D2D8C2FF7
:10193000810F0E94620A2C2D41E04C0F6D2D8D2FDE
:10194000810F0E94620AED2FF0E0F7FE08C0EE0F53
:10195000FF1FEE0FFF1F3696EE0EFF1E0AC0EC1B98
:10196000F109EE0FFF1FEE0FFF1F3A96EE0EFF1E5E
:10197000C150DF5FB394CD1708F09DCFDF91CF91B9
:101980001F910F91FF90EF90DF90CF90BF90AF909D
:101990009F908F900895BF92CF92DF92EF92FF9227
:1019A0000F931F93CF93DF93EC01B62EF980F6943B
:1019B000F694F694E42EE694E694E6948A818823DD
:1019C00029F18130C9F5C12CD12C8C2DCF14A0F573
:1019D00010E0082F0E0D88811817A0F48C9DF001DF
:1019E0008D9DF00D1124E10FF11D4B815C81E40F01
:1019F000F51F4491612F6B0D20E0802F0E94DF0DB9
:101A00001F5FE9CF8FEFC81AD80ADFCF00E010E0E0
:101A10000F1590F428816E2D600F209FC001219F2B
:101A2000900D1124EB81FC814B2D8E0F9F1F0E9486
:101A3000A20D0F5F1F4FECCFDF91CF911F910F9140
:101A4000FF90EF90DF90CF90BF90089508951F937F
:101A5000CF93DF931F92CDB7DEB7182F88E089832D
:101A6000BE016F5F7F4F80EC98E00E94DC0882E04F
:101A7000809326061093C3080E94260DBE016F5F57
:101A80007F4F80EC98E00E94F2080F90DF91CF9199
:101A90001F9108958770806B0C94270DCF93C82FEA
:101AA000982F9F77892F82958F7080610E94270DD4
:101AB0008C2F8F70CF910C94270D1F93CF93DF93B2
:101AC0001F92CDB7DEB7182F88E08983BE016F5F04
:101AD0007F4F80EC98E00E94DC0882E0809325062E
:101AE0001093C3080E94260DBE016F5F7F4F80ECEC
:101AF00098E00E94F2080F90DF91CF911F91089516
:101B00001F93CF9387FD1AC06032C0F4C62F682F91
:101B10001C2F169516951695812F0E94680928EF9F
:101B20002103A00111244C0F511D21E030E0042EAF
:101B300001C0220F0A94EAF7822301C080E0CF910E
:101B40001F910895FF920F931F93CF93DF93182F48
:101B5000F92ED62FC42F022F0E942F098D2F0E94FD
:101B60004A0D8C2F0E944E0DC12FDF2D100F899131
:101B70000E945D0D1C13FBCFDF91CF911F910F9140
:101B8000FF9008950F931F93CF9308EA14E2C0E0EB
:101B90008C2F0E944A0D80E00E944E0D20E840E00C
:101BA0006C2FC8010E94A20DCF5F00581F4FC43098
:101BB00079F7CF911F910F9108950C9445091F93C8
:101BC000CF93DF93D82F162FC42F222389F04C2FC9
:101BD000612F8D2F0E945A098D2F0E944A0D812F4F
:101BE0000E944E0D8C2FDF91CF911F910C945D0DB3
:101BF0000E946809C813EBCFDF91CF911F91089520
:101C0000CF93DF9388EA94E20E942A090E94230F6F
:101C100080E40E94270DD0E0C0E021E040E06C2F7E
:101C20008D2F0E94DF0DCF5FC038B9F7DF5FD43052
:101C300099F7DF91CF910895FF920F931F93CF9360
:101C4000DF9387FD2FC0603268F5042F182FF62E22
:101C5000F694F694F6942F2D38EF3203C001112438
:101C6000860F911DC1E0D0E001C0CC0F8A95EAF744
:101C7000612F8F2D0E946809482F013029F030F024
:101C8000023031F44C2704C04C2B02C0C0954C23C9
:101C900020E0612F8F2DDF91CF911F910F91FF9049
:101CA0000C94DF0DDF91CF911F910F91FF9008955C
:101CB0000C9468090F931F93CF93DF9300D0CDB797
:101CC000DEB7182F062F2A8349830E9468092A81CC
:101CD0004981213029F030F0223031F4842704C0CA
:101CE000842B02C04095842320E0482F602F812F51
:101CF0000F900F90DF91CF911F910F910C94DF0DFA
:101D00008FEF8093700080937100809372008093B6
:101D1000730080937400809375008093760008951B
:101D20009FB7F894E82FF0E0E059FF4F609580816D
:101D3000682360839FBF08959FB7F894E82FF0E071
:101D4000E059FF4F8081682B60839FBF08958630E4
:101D500011F060E001C068E18091510081FF09C08D
:101D6000636084E490E00E94DB0460E480E00C9413
:101D7000900E9FB7F894809150008260809350003D
:101D80009FBF8091510081FFFCCFEACF60E480E0EB
:101D90000E949C0E60E084E490E00C94DB046150AF
:101DA000710981099109D9F708951F93CF93DF93A2
:101DB0001F92CDB7DEB7182F88E08983BE016F5F11
:101DC0007F4F80EC98E00E94DC0882E0809326063A
:101DD0001093C30863E070E080E090E00E94CF0EB3
:101DE000BE016F5F7F4F80EC98E00E94F2080F9079
:101DF000DF91CF911F9108951F93CF93DF931F928F
:101E0000CDB7DEB7182F88E08983BE016F5F7F4FA3
:101E100080EC98E00E94DC0882E080932506109315
:101E2000C30863E070E080E090E00E94CF0EBE0146
:101E30006F5F7F4F80EC98E00E94F2080F90DF9177
:101E4000CF911F910895CF92DF92EF92FF920F935F
:101E50001F93CF93DF931F92CDB7DEB714E010939B
:101E6000260661E270E080E090E00E94CF0E1093C1
:101E7000250661E270E080E090E00E94CF0E88E0ED
:101E8000898380EC98E00E947208C12CD12C7601E5
:101E900000E412E42FE030E040E0BE016F5F7F4FCE
:101EA00080EC98E00E9491088091C0088064809343
:101EB000C0088EEA0E94D50E85ED0E94D50E80EAFC
:101EC0000E94D50E88EA0E94D50E8FE30E94D50E9F
:101ED00083ED0E94D50E80E00E94D50E80E40E9422
:101EE000D50E81EA0E94D50E88EC0E94D50E8AEDAF
:101EF0000E94D50E82E10E94D50E81E80E94D50E87
:101F000083EE0E94D50E89ED0E94D50E89E10E94D4
:101F1000D50E8BED0E94D50E8CE30E94D50E84EA7F
:101F20000E94D50E86EA0E94D50E10E0812F806BAC
:101F30000E94D50E80E10E94D50E80E00E94D50E51
:101F400000E080E00E94FC0E0F5F0038D1F71F5FB9
:101F5000183061F780E28093850665E07DE080E0DF
:101F600090E00E94CF0E8FEA0E94D50E65E372E8E2
:101F700080E090E00E94CF0E0F90DF91CF911F91F3
:101F80000F91FF90EF90DF90CF900895EF92FF9226
:101F90000F931F93CF938C01D801ED918D01EE2308
:101FA000D1F0EF37C8F7F0E0EE0FFF1FEF56FE4D10
:101FB000E080F180C1E0D7018C918C1740F0F701EF
:101FC000EC0FF11D80810E94FC0ECF5FF4CF80E00A
:101FD0000E94FC0EE1CFCF911F910F91FF90EF90E7
:101FE00008956150710981099109D9F708951F93E6
:101FF000CF93DF931F92CDB7DEB7182F88E0898388
:10200000BE016F5F7F4F80EC98E00E94DC0882E0A9
:10201000809326061093C30863E070E080E090E0B0
:102020000E94F10FBE016F5F7F4F80EC98E00E942D
:10203000F2080F90DF91CF911F910895EF92FF92D8
:102040000F931F93CF93DF931F92CDB7DEB710E0AE
:1020500082E0F82E98E0E92E812F806B0E94F70F26
:1020600080E10E94F70F80E00E94F70F00E0E98214
:10207000BE016F5F7F4F80EC98E00E94DC08F09219
:1020800025061092C30863E070E080E090E00E94B3
:10209000F10FBE016F5F7F4F80EC98E00E94F20865
:1020A0000F5F003821F71F5F1830B1F60F90DF91F6
:1020B000CF911F910F91FF90EF90089587EE93E0DD
:1020C0008093B7269093B8261092BA261092BB261A
:1020D0001092B9260895882339F0813019F080E4F0
:1020E0008093870680E0089581E00895CF93DF9381
:1020F000CDB7DEB72597CDBFDEBF49835A836B834B
:102100007C838D8348E060E0CE0101960E94CB0C79
:102110002596CDBFDEBFDF91CF9108950F931F931A
:10212000CF938C01C42F862F8770806B0E94F70F8E
:102130009C2F9F77892F82958F7080610E94F70F67
:102140008C2F8F700E94F70FC801CF911F910F91B4
:102150000C94C60FCF92DF92EF92FF92CF93DF9352
:10216000CDB7DEB72797CDBFDEBF28EE33E060E006
:1021700070E0CB0158E0EFB7F89440910002446062
:1021800040930002EFBF5093860650938506C0909F
:102190002402D0902502EE24D7FCE094FE2C6C0D96
:1021A0007D1D8E1D9F1D2150310929F728EE33E03A
:1021B00040E050E00E94C011CA01B9010E94121211
:1021C0000E9476120E94DF11DC01CB017C014AE003
:1021D00062EB76E20E94CF128091BB26882359F0F1
:1021E0000E941E1049E150E061E070E08FE894E247
:1021F0000E948E1005C088EEE81683E0F80699F07C
:1022000062EB76E2CE0101960E94C81280E28C83D6
:1022100087E58D831E8247E350E063E070E0CE01E6
:1022200001960E948E102796CDBFDEBFDF91CF9121
:10223000FF90EF90DF90CF900895CF93DF93CDB7CD
:10224000DEB72B97CDBFDEBF0E942C080E94800E08
:102250000E94000EBE016F5F7F4F80E092E00E94FF
:10226000CF06AE01485F5F4F61E080E092E00E94E0
:102270003F078A819B819F7890619B83817E8061EB
:102280008A8381E08C8383E08D8382E0888788E085
:102290008987BE016F5F7F4F80E092E00E947106E8
:1022A000AE01485F5F4F61E080E092E00E94F4067B
:1022B00087E08093A2000E945E101B8280E88983E1
:1022C00080E28A838FE892E28C839D8380E092E0B3
:1022D0000E94DA0700E010E0FF24F3948091A80642
:1022E00086FB882780F98093BC269091BA26992393
:1022F00031F0811104C00F5F1F4FF092BB26809117
:10230000BB26882381F00E941E101092BB2600FF7E
:1023100008C049815A816B817C818D810E94761031
:1023200002C00E94AA108091BC268093BA2665E361
:1023300072E880E090E00E94F10FD0CFA1E21A2E67
:10234000AA1BBB1BFD010DC0AA1FBB1FEE1FFF1F59
:10235000A217B307E407F50720F0A21BB30BE40BA9
:10236000F50B661F771F881F991F1A9469F76095F0
:102370007095809590959B01AC01BD01CF010895AA
:10238000052E97FB1EF400940E94D71157FD07D02D
:102390000E949E1107FC03D04EF40C94D711509567
:1023A0004095309521953F4F4F4F5F4F0895909541
:1023B0008095709561957F4F8F4F9F4F089504D002
:1023C0006894B1118DC0089570D088F09F5790F037
:1023D000B92F9927B751A0F0D1F0660F771F881F4A
:1023E000991F1AF0BA95C9F712C0B13081F077D0B1
:1023F000B1E0089574C0672F782F8827B85F39F04F
:10240000B93FCCF3869577956795B395D9F73EF4A8
:1024100090958095709561957F4F8F4F9F4F089550
:10242000E89409C097FB3EF490958095709561956E
:102430007F4F8F4F9F4F9923A9F0F92F96E9BB2724
:102440009395F695879577956795B795F111F8CFA0
:10245000FAF4BB0F11F460FF1BC06F5F7F4F8F4F0B
:102460009F4F16C0882311F096E911C0772321F001
:102470009EE8872F762F05C0662371F096E8862F99
:1024800070E060E02AF09A95660F771F881FDAF7F0
:10249000880F9695879597F9089557FD9058440FA2
:1024A000551F59F05F3F71F04795880F97FB991FB3
:1024B00061F09F3F79F08795089512161306140670
:1024C000551FF2CF4695F1DF08C0161617061806FD
:1024D000991FF1CF86957105610508940895E894D8
:1024E000BB2766277727CB0197F90895DEDFE0F059
:1024F0009E37D8F09639B8F49E3848F4672F782F75
:102500008827985FF9CF8695779567959395953944
:10251000D0F3B62FB1706B0F711D811D20F487951C
:1025200077956795939502C01CC0DACF882371F424
:10253000772321F09850872B762F07C0662311F45C
:1025400099270DC09051862B70E060E02AF09A9593
:10255000660F771F881FDAF7880F9695879597F98A
:1025600008959F3F31F0915020F4879577956795B6
:10257000B795880F911D9695879597F90895FB015A
:10258000DC0102C001900D9241505040D8F70895EF
:10259000FB01DC0101900D920020E1F70895BB27BB
:1025A0004A3031F4992322F4BDE2909581959F4FF2
:1025B0000C94DB12BB27FB015527AA27880F991F14
:1025C000AA1FA41710F0A41B83955051B9F7A05D62
:1025D000AA3308F0A95DA193009779F7B111B193DF
:1025E0001192CB010C94F412DC01FC01672F719164
:1025F0007723E1F7329704C07C916D9370836291E9
:0C260000AE17BF07C8F30895F894FFCF91
:10260C009BB78BBFFB018091CA014093CA017DE946
:10261C0070933400E8958093CA019BBF0895209174
:10262C00CF0127FDFCCF9BB78BBFFB018091CA016B
:10263C0023E22093CA010A01E89511248093CA0170
:04264C009BBF089593
:10265000000E060C040005100810201003826C10F8
:1026600001FE03106C8203C8A8980418A0A0780586
:1026700088502050880538C030C038051860806008
:102680001804788080F803087C880490A8A8480380
:10269000F8100804102828F804F828281004708876
:1026A000887004F81008F005F808F008F001FE043E
:1026B000FE20508802807A01FA04FE1008F004100F
:1026C000A8A87803FC12020470A8A83004708888B7
:1026D000FE047088888804FE88887004708888F8F2
:1026E0000202040380808003040204038282FE034A
:1026F0000638C003FE828205C2A2928A86050608B9
:10270000F0080605C6281028C6053EC038C03E059C
:102710000E30C0300E047E80807E050202FE020272
:10272000044C92926404FE1232CC057C82A242BC1C
:1027300004FE12120C047C82827C05FE041860FEEA
:1027400005FE040804FE04FE80808005FE10284477
:1027500082044080807E0382FE8204FE1010FE050B
:102760007C829292F404FE12120204FE929282047F
:10277000FE82827C047C82824404FE92926C05F884
:10278000141214F808384492AAAABA2418050402AC
:10279000A2120C0482442810042828282804102897
:1027A000448201C40144054C9292927C056C929241
:1027B000926C050202F20A06057C92929264055E12
:1027C0008A8A8A7205302824FE2005448292926CFF
:1027D0000584C2A2928C050084FE8000057CA29232
:1027E0008A7C03C0380601800310101001C003105A
:1027F0003810032810280382443803384482010625
:10280000056C92AC40A005462610C8C4054854FE8D
:1028100054240528FE28FE280306000601BE0200F7
:1028200000CE21CC21C821C221BC21B621B021AECD
:1028300021AA21A621A2219E219C219821962192A4
:10284000218C21862180217A2174216E21682162C8
:10285000215C215621542152214D21482143213D03
:102860002134212E21292124211F211A2115210F54
:10287000210A2106210121FB20F620F020EA20E593
:1028800020E020DA20D520D020CA20C520BF20B9E2
:1028900020B320AD20A720A3209F209B209720932A
:1028A0002090208B20862081207C20772073206E32
:1028B000206920672064205F205D20572052204D32
:1028C00020482043203F203A20362031202B20254D
:1028D000201F201A201620122010200C2006203045
:1028E000F8D8080808080C0C2C4414240696A69264
:1028F000A28AD24242820303060C3040000000004C
:1029000000000000000000000000000000000000C7
:1029100000000000000000000000000000000000B7
:1029200000000000000000000000000000000000A7
:102930000000000000000000000000000000000097
:102940000000000000000000000000000000000087
:102950000000000000000000000000000000000077
:1029600000030F3CF0C000000001071921C0000067
:102970000000C0F0F81C0E0607070303030303075B
:10298000060600000080E0603030303060E08000FB
:102990000000F0E0C060303060E0C0C0E060303087
:1029A00060E0C080000000E0E0703030303060E077
:1029B000C0000000E0E000000000000000E0E000D7
:1029C0000000FFFF0000006060303030306060E0E9
:1029D000800000FFFFE06030303060E0C080000029
:1029E0000000000000030F3CF0C000000000030CDA
:1029F00008000F3F7CE0C080808000000000008065
:102A0000808000003F7FC0800000000080C07F3FCA
:102A10000000FFFF000000000000FFFF00000000BA
:102A20000000FFFF000000FFFF800000000080C1E9
:102A3000FF3F00007FFFC08000000080C0FFFF005C
:102A40000000FFFF0000F0F88C060606068CCCFFA5
:102A5000FF0000FFFF800000000080C0E37F0C004B
:102A6000000000000000000000030F1C38181818B8
:102A70000C0C0C0604000101010303030303030310
:102A80000101000000000101030303030101000034
:102A9000000003030000000000000303000000002A
:102AA000000003030000003F3F0103030303010193
:102AB0000000000000010103030303010003030001
:102AC00000000303000000010303030303010103EB
:102AD000030000010303030303030101000000508E
:102AE0006F77657220636F6E73756D7074696F6E4A
:042AF0003A20000088
:00000001FF
